:020000040000FA
:100000000C9462000C948A000C948A000C948A0070
:100010000C948A000C948A000C948A000C948A0038
:100020000C948A000C948A000C948A000C948A0028
:100030000C948A000C948A000C948A000C948A0018
:100040000C9473040C948A000C9441040C941B04CB
:100050000C948A000C948A000C948A000C948A00F8
:100060000C948A000C948A000000000024002700F1
:100070002A0000000000250028002B0000000008D6
:10008000000201000003040700000000000000005F
:1000900000000000230026002900040404040404D6
:1000A0000404020202020202030303030303010227
:1000B00004081020408001020408102001020408F6
:1000C0001020020511241FBECFEFD8E0DEBFCDBF48
:1000D00011E0A0E0B1E0EAE0F0E102C005900D928D
:1000E000A235B107D9F722E0A2E5B1E001C01D9227
:1000F000A431B207E1F710E0C2E6D0E004C02197D6
:10010000FE010E94FD07C136D107C9F70E944C05C8
:100110000C9403080C940000AF92BF92CF92DF9230
:10012000EF92FF920F931F93CF93DF936C017B01AC
:100130008B01040F151FEB015E01AE18BF08C0173D
:10014000D10759F06991D601ED91FC910190F081B0
:10015000E02DC6010995892B79F7C501DF91CF9173
:100160001F910F91FF90EF90DF90CF90BF90AF90D5
:100170000895FC01538D448D252F30E0842F90E0AD
:10018000821B930B541710F0CF9608950197089592
:10019000FC01918D828D981761F0A28DAE0FBF2F5B
:1001A000B11D5D968C91928D9F5F9F73928F90E0B1
:1001B00008958FEF9FEF0895FC01918D828D981720
:1001C00031F0828DE80FF11D858D90E008958FEF5D
:1001D0009FEF0895FC01918D228D892F90E0805C26
:1001E0009F4F821B91098F73992708958FE591E0A6
:1001F0000E94EA0021E0892B09F420E0822F089573
:1002000080E090E0892B29F00E94F60081110C9487
:1002100000000895FC01A48DA80FB92FB11DA35AA9
:10022000BF4F2C91848D90E001968F739927848F16
:10023000A689B7892C93A089B1898C918370806439
:100240008C93938D848D981306C00288F389E02DDA
:1002500080818F7D80830895EF92FF920F931F938B
:10026000CF93DF93EC0181E0888F9B8D8C8D981369
:100270001AC0E889F989808185FF15C09FB7F89475
:10028000EE89FF896083E889F989808183708064C1
:1002900080839FBF81E090E0DF91CF911F910F910C
:1002A000FF90EF900895F62E0B8D10E00F5F1F4F1B
:1002B0000F731127E02E8C8D8E110CC00FB607FC2A
:1002C000FACFE889F989808185FFF5CFCE010E94B8
:1002D0000A01F1CFEB8DEC0FFD2FF11DE35AFF4F1B
:1002E000F0829FB7F8940B8FEA89FB898081806246
:1002F000CFCFCF93DF93EC01888D8823B9F0AA8903
:10030000BB89E889F9898C9185FD03C0808186FDD0
:100310000DC00FB607FCF7CF8C9185FFF2CF80811F
:1003200085FFEDCFCE010E940A01E9CFDF91CF9189
:10033000089590E0FC01E458FF4F2491FC01E25540
:10034000FF4F3491FC01E656FF4FE491EE23C9F0D4
:10035000222339F0233001F1A8F4213019F12230A1
:1003600029F1F0E0EE0FFF1FEE58FF4FA591B49179
:100370008FB7F894EC91611126C030953E233C93E1
:100380008FBF08952730A9F02830C9F0243049F7ED
:10039000809180008F7D03C0809180008F77809353
:1003A0008000DFCF84B58F7784BDDBCF84B58F7DB0
:1003B000FBCF8091B0008F778093B000D2CF809137
:1003C000B0008F7DF9CF3E2BDACFCF93DF9390E053
:1003D000FC01E255FF4F249186569F4FFC0184910A
:1003E0008823D1F090E0880F991FFC01E859FF4F56
:1003F000A591B491FC01EE58FF4FC591D4916111C4
:100400000EC09FB7F8948C91E22FE0958E238C93C9
:100410002881E223E8839FBFDF91CF9108958FB7B2
:10042000F894EC91E22BEC938FBFF6CF3FB7F894A2
:100430008091570190915801A0915901B0915A01B2
:1004400026B5A89B05C02F3F19F00196A11DB11D2F
:100450003FBFBA2FA92F982F8827BC01CD01620F6B
:10046000711D811D911D42E0660F771F881F991F26
:100470004A95D1F708958F929F92AF92BF92CF92F3
:10048000DF92EF92FF920E9416024B015C018CED0D
:10049000C82E85E0D82EE12CF12C0E941602681996
:1004A00079098A099B09683E734081059105A8F383
:1004B00021E0C21AD108E108F10888EE880E83E035
:1004C000981EA11CB11CC114D104E104F10429F748
:1004D000FF90EF90DF90CF90BF90AF909F908F9064
:1004E0000895089590E080E00895CF93DF93EC01A4
:1004F00060E08E810E94990161E08E810E949901E5
:1005000060E08E810E9499018BE891E00197F1F7FC
:10051000DF91CF910895CF92DF92EF92FF920F93E8
:100520001F93CF93DF936C017C0187E0E80EF11CF1
:10053000D0E0C0E0062F10E0B8010C2E02C0759587
:1005400067950A94E2F76170F70181917F010E943B
:1005500099012196C430D10579F7C601DF91CF9179
:100560001F910F91FF90EF90DF90CF900C94750248
:10057000CF92DF92EF92FF920F931F93CF93DF936F
:10058000EC01F62E642F8C810E9499018D818F3FA2
:1005900019F060E00E9499010F2D10E08F8584FF13
:1005A00025C06E0187E0C80ED11CF12CE12CB801EA
:1005B0000E2C02C0759567950A94E2F76170F601FA
:1005C00081916F010E949901FFEFEF1AFF0A88E005
:1005D000E816F10461F7CE01DF91CF911F910F91E1
:1005E000FF90EF90DF90CF900C947502B80184E0FB
:1005F000759567958A95E1F7CE010E948B026F2D64
:10060000CE01DF91CF911F910F91FF90EF90DF907E
:10061000CF900C948B0240E0682F8CEF91E00C940B
:10062000B80281E00E940B038BE39FE10197F1F791
:100630000895CF93DF93823029F490910B02986054
:1006400090930B0280930F021092100280E480932B
:10065000110280E18093120280E58093130261E031
:10066000809100020E94E501809101028F3F19F004
:1006700061E00E94E50161E0809102020E94E501D3
:10068000CCEFD1E09E012C5F314080910B0284FDC4
:100690000BC084E090E021962817390744F461E00C
:1006A0008E810E94E501EECF88E090E0F4CF8BE3ED
:1006B0009DE00197F1F760E0809100020E949901AE
:1006C00060E0809102020E949901809101028F3FB7
:1006D00019F060E00E94990180910B0284FD34C002
:1006E00063E08CEF91E00E948B02CBE4D6E4CE0174
:1006F0000197F1F763E08CEF91E00E948B02219764
:10070000F1F763E08CEF91E00E948B0283E592E0C9
:100710000197F1F762E08CEF91E00E948B028091EB
:100720000B0280620E940B0384E080930C028CE039
:100730000E940B030E94110382E080930D0286E069
:10074000DF91CF910C940B0380620E940B038BE42A
:1007500096E40197F1F780910B0280620E940B03EF
:1007600083E592E00197F1F780910B0280620E948D
:100770000B03D5CF41E00E94B80281E090E00895DC
:10078000FB0101900020E9F73197AF01461B570BA1
:10079000DC01ED91FC910280F381E02D09948F92B0
:1007A0009F92AF92BF92EF92FF920F931F93CF93BE
:1007B000DF93CDB7DEB7A1970FB6F894DEBF0FBEBB
:1007C000CDBF7C01FA01CB0119A2223008F42AE046
:1007D0008E010F5D1F4F822E912CB12CA12CBF01D9
:1007E000A50194010E94DB07F901CA016A300CF5EA
:1007F000605DD8016E938D01232B242B252B79F777
:1008000090E080E0109721F0BD01C7010E94C00375
:10081000A1960FB6F894DEBF0FBECDBFDF91CF918A
:100820001F910F91FF90EF90BF90AF909F908F908E
:100830000895695CDECF1F920F920FB60F921124BC
:100840002F933F934F935F936F937F938F939F93D8
:10085000AF93BF93EF93FF938FE591E00E940A015E
:10086000FF91EF91BF91AF919F918F917F916F9188
:100870005F914F913F912F910F900FBE0F901F905E
:1008800018951F920F920FB60F9211242F938F93EA
:100890009F93EF93FF93E0916F01F091700180813E
:1008A000E0917501F091760182FD1BC090818091ED
:1008B00078018F5F8F7320917901821741F0E09169
:1008C0007801F0E0E15AFE4F958F80937801FF9117
:1008D000EF919F918F912F910F900FBE0F901F90CE
:1008E00018958081F4CF1F920F920FB60F921124AA
:1008F0002F933F938F939F93AF93BF938091530117
:1009000090915401A0915501B0915601309152013E
:1009100023E0230F2D3758F50196A11DB11D20931B
:1009200052018093530190935401A0935501B093C9
:1009300056018091570190915801A0915901B091B1
:100940005A010196A11DB11D809357019093580142
:10095000A0935901B0935A01BF91AF919F918F918C
:100960003F912F910F900FBE0F901F90189526E882
:10097000230F0296A11DB11DD2CFCF92DF92EF922D
:10098000FF920F931F93E82FF92F05C00150110913
:100990002109310961F1908196239417B9F305C0BB
:1009A000015011092109310911F190819623941305
:1009B000F7CFC12CD12CE12CF12C0AC08FEFC81A33
:1009C000D80AE80AF80A0C151D052E053F0579F02E
:1009D00080818623841791F36C2D7D2D8E2D9F2D84
:1009E0001F910F91FF90EF90DF90CF90089560E0FE
:1009F00070E080E090E01F910F91FF90EF90DF900A
:100A0000CF900895EFE5F1E01382128288EE93E033
:100A1000A0E0B0E084839583A683B78384E091E06F
:100A20009183808385EC90E09587848784EC90E0C7
:100A30009787868780EC90E0918B808B81EC90E0AB
:100A4000938B828B82EC90E0958B848B86EC90E08C
:100A5000978B868B118E128E138E148EECEFF1E035
:100A60001382128286E191E0918380838CE08483FB
:100A70008FEF85838BE0868387E0878386E080879E
:100A800085E0818784E08287138614861586168622
:100A9000178681E00C941903789484B5826084BD34
:100AA00084B5816084BD85B5826085BD85B5816072
:100AB00085BD80916E00816080936E0010928100F0
:100AC00080918100826080938100809181008160AB
:100AD000809381008091800081608093800080916C
:100AE000B10084608093B1008091B00081608093F8
:100AF000B00080917A00846080937A0080917A00BF
:100B0000826080937A0080917A00816080937A007D
:100B100080917A00806880937A001092C10082E010
:100B20000E94190361E089E00E94E50160E08AE02B
:100B30000E94E501E0916F01F091700182E08083F5
:100B4000E0916B01F0916C011082E0916D01F091E8
:100B50006E018FEC808310927701E0917301F09128
:100B6000740186E08083E0917101F09172018081CF
:100B700080618083E0917101F091720180818860D1
:100B80008083E0917101F09172018081806880839F
:100B9000E0917101F091720180818F7D8083CBE1C2
:100BA000D0E048EBE42E40E0F42E54EAC52E50E0AD
:100BB000D52E60E0A62E60E0B62E0E9411036EE1F5
:100BC00071E08CEF91E00E94C003E0910F02E230EF
:100BD00008F0B7C0E150F0E0E450FE4F848980682F
:100BE0000E940B0361E371E08CEF91E00E94C0036F
:100BF0000E943B0260E089E00E949901CE010197CA
:100C0000F1F761E089E00E949901CE010197F1F7C7
:100C100060E089E00E949901CE010197F1F7F701A8
:100C20006491F6018491E82FF0E0EE0FFF1FE0578A
:100C3000FF4F8591949100E412E42FE030E0462FBD
:100C40000E94BD04611571058105910529F06F5F52
:100C50007F4F8F4F9F4F9F7095958795779567959D
:100C60000E944F072DEC3CEC48EE51E40E94A50693
:100C70000E9417072B013C0140925B0150925C01DE
:100C800060925D0170925E012AE0BC01A20177FED4
:100C90000DC06DE28FE591E00E942C01442755279D
:100CA000BA0144195509660977092AE08FE591E0F0
:100CB0000E94CF036FE371E08FE591E00E94C003D3
:100CC0000E94110362E471E08CEF91E00E94C00386
:100CD000E0910F02E230B8F5E150F0E0E450FE4F51
:100CE000848980680E940B0340905B0150905C01F6
:100CF00060905D0170905E012AE0B301A20177FE71
:100D00000EC041E06DE28CEF91E00E94B8024427F2
:100D10005527BA0144195509660977092AE08CEF6D
:100D200091E00E94CF030E943B02A114B10409F498
:100D300044CF0E94F600882309F43FCF0E940000B0
:100D40003CCFE1E048CFE1E0C8CF0E94B9060C9467
:100D5000A1070E949A0758F00E94930740F029F4D7
:100D60005F3F29F00C948A0751110C94D5070C941D
:100D700090070E94B20768F39923B1F3552391F3CA
:100D8000951B550BBB27AA2762177307840738F0FA
:100D90009F5F5F4F220F331F441FAA1FA9F335D057
:100DA0000E2E3AF0E0E832D091505040E695001C0B
:100DB000CAF72BD0FE2F29D0660F771F881FBB1FC5
:100DC000261737074807AB07B0E809F0BB0B802DA3
:100DD000BF01FF2793585F4F3AF09E3F510578F0CF
:100DE0000C948A070C94D5075F3FE4F3983ED4F344
:100DF000869577956795B795F7959F5FC9F7880FA3
:100E0000911D9695879597F90895E1E0660F771FF4
:100E1000881FBB1F621773078407BA0720F0621B85
:100E2000730B840BBA0BEE1F88F7E09508950E94B0
:100E30001E076894B1110C94D50708950E94BA0753
:100E400088F09F5798F0B92F9927B751B0F0E1F08B
:100E5000660F771F881F991F1AF0BA95C9F714C03B
:100E6000B13091F00E94D407B1E008950C94D407FA
:100E7000672F782F8827B85F39F0B93FCCF3869574
:100E800077956795B395D9F73EF4909580957095D1
:100E900061957F4F8F4F9F4F0895E89409C097FB4E
:100EA0003EF490958095709561957F4F8F4F9F4F41
:100EB0009923A9F0F92F96E9BB279395F695879585
:100EC00077956795B795F111F8CFFAF4BB0F11F448
:100ED00060FF1BC06F5F7F4F8F4F9F4F16C08823EF
:100EE00011F096E911C0772321F09EE8872F762F25
:100EF00005C0662371F096E8862F70E060E02AF066
:100F00009A95660F771F881FDAF7880F9695879551
:100F100097F9089597F99F6780E870E060E0089579
:100F20009FEF80EC089500240A9416161706180601
:100F30000906089500240A941216130614060506DD
:100F40000895092E0394000C11F4882352F0BB0F6E
:100F500040F4BF2B11F460FF04C06F5F7F4F8F4FD1
:100F60009F4F089557FD9058440F551F59F05F3F0C
:100F700071F04795880F97FB991F61F09F3F79F0BB
:100F800087950895121613061406551FF2CF46953D
:100F9000F1DF08C0161617061806991FF1CF8695BF
:100FA0007105610508940895E894BB2766277727A3
:100FB000CB0197F90895A1E21A2EAA1BBB1BFD01D4
:100FC0000DC0AA1FBB1FEE1FFF1FA217B307E40728
:100FD000F50720F0A21BB30BE40BF50B661F771F80
:100FE000881F991F1A9469F7609570958095909560
:100FF0009B01AC01BD01CF010895EE0FFF1F0590CD
:10100000F491E02D0994F894FFCF000000002C012A
:101010008C00B9007901EA00C800DC000000000083
:10102000BA038C00720271024A6F68616E204661D9
:101030006872756C20496C68616D00472E323131E1
:101040002E31392E30303631000D0A0053656E7363
:0C1050006F72204A6172616B203D20002D
:107E0000112484B714BE81FFF0D085E080938100F7
:107E100082E08093C00088E18093C10086E0809377
:107E2000C20080E18093C4008EE0C9D0259A86E02C
:107E300020E33CEF91E0309385002093840096BBD3
:107E4000B09BFECF1D9AA8958150A9F7CC24DD24C4
:107E500088248394B5E0AB2EA1E19A2EF3E0BF2EE7
:107E6000A2D0813461F49FD0082FAFD0023811F036
:107E7000013811F484E001C083E08DD089C08234E0
:107E800011F484E103C0853419F485E0A6D080C0E4
:107E9000853579F488D0E82EFF2485D0082F10E0AE
:107EA000102F00270E291F29000F111F8ED06801E7
:107EB0006FC0863521F484E090D080E0DECF843638
:107EC00009F040C070D06FD0082F6DD080E0C81688
:107ED00080E7D80618F4F601B7BEE895C0E0D1E017
:107EE00062D089930C17E1F7F0E0CF16F0E7DF06D8
:107EF00018F0F601B7BEE89568D007B600FCFDCFD4
:107F0000A601A0E0B1E02C9130E011968C91119780
:107F100090E0982F8827822B932B1296FA010C0160
:107F200087BEE89511244E5F5F4FF1E0A038BF0790
:107F300051F7F601A7BEE89507B600FCFDCF97BE46
:107F4000E89526C08437B1F42ED02DD0F82E2BD052
:107F50003CD0F601EF2C8F010F5F1F4F84911BD097
:107F6000EA94F801C1F70894C11CD11CFA94CF0C13
:107F7000D11C0EC0853739F428D08EE10CD085E9AC
:107F80000AD08FE07ACF813511F488E018D01DD067
:107F900080E101D065CF982F8091C00085FFFCCF94
:107FA0009093C60008958091C00087FFFCCF809118
:107FB000C00084FD01C0A8958091C6000895E0E648
:107FC000F0E098E1908380830895EDDF803219F02E
:107FD00088E0F5DFFFCF84E1DECF1F93182FE3DFCA
:107FE0001150E9F7F2DF1F91089580E0E8DFEE27F6
:047FF000FF270994CA
:027FFE00040479
:00000001FF
